01REMESSA01COBRANCA       023400098452        OBJECTOS FABRICA DE SOFTWARE L341BANCO ITAU SA  140312                                                                                                                                                                                                                                                                                                      000001