01REMESSA01COBRANCA       00000000000000001234OBJECTOS FABRICA DE SOFTWARE L237BRADESCO       140312        MX0000123                                                                                                                                                                                                                                                                                     000001